:020000040800F2
:1000000000A00020A90A00088D0A00088F0A000835
:10001000910A0008930A0008950A000800000000F1
:10002000000000000000000000000000970A000827
:10003000990A0008000000009B0A00089D0A0008B9
:10004000F90A0008F90A0008F90A0008F90A000884
:10005000F90A0008F90A0008F90A0008F90A000874
:10006000F90A0008F90A0008F90A0008F90A000864
:10007000F90A0008F90A0008F90A0008F90A000854
:10008000F90A0008F90A0008F90A0008F90A000844
:10009000F90A0008F90A0008F90A0008F90A000834
:1000A000F90A0008F90A0008F90A0008F90A000824
:1000B000F90A0008F90A0008F90A0008F90A000814
:1000C000F90A0008F90A0008F90A0008F90A000804
:1000D000F90A0008F90A0008F90A0008F90A0008F4
:1000E000F90A0008F90A0008F90A0008F90A0008E4
:1000F000F90A0008F90A0008F90A0008F90A0008D4
:10010000000000000000000000000000F90A0008E4
:10011000F90A0008F90A0008F90A0008F90A0008B3
:10012000F90A0008F90A0008F90A0008F90A0008A3
:10013000F90A0008F90A00080000000000000000A9
:10014000F90A0008F90A0008F90A0008000000008E
:10015000000000000000000000000000000000009F
:100160000000000000000000F90A0008F90A000879
:10017000F90A000800000000000000000000000074
:0801800000000000F90A00086C
:1001880010B5054C237833B9044B13B10448AFF3C9
:1001980000800123237010BD3C04002000000000F3
:1001A8006818000808B5034B1BB103490348AFF3AF
:1001B800008008BD00000000400400206818000806
:1001C80070B54FF0FF0C4CF4E06C1CEA11541DBFE5
:1001D8001CEA135594EA0C0F95EA0C0F00F0DEF8B0
:1001E8002C4481EA030621EA4C5123EA4C5350EA95
:1001F800013518BF52EA033541F4801143F48013E6
:1002080038D0A0FB02CE4FF00005E1FB02E506F076
:100218000042E0FB03E54FF00006E1FB03569CF0CB
:10022800000F18BF4EF0010EA4F1FF04B6F5007FD1
:1002380064F5407404D25FEA4E0E6D4146EB060643
:1002480042EAC62141EA55514FEAC52040EA5E50CC
:100258004FEACE2EB4F1FD0C88BFBCF5E06F1ED876
:10026800BEF1004F08BF5FEA500E50F1000041EBAD
:10027800045170BD06F0004646EA010140EA02005A
:1002880081EA0301B4EB5C04C2BFD4EB0C0541EA7C
:10029800045170BD41F480114FF0000E013C00F391
:1002A800AB8014F1360FDEBF002001F0004170BDB5
:1002B800C4F10004203C35DA0C341BDC04F11404CE
:1002C800C4F1200500FA05F320FA04F001FA05F25A
:1002D80040EA020001F0004221F0004110EBD37027
:1002E80021FA04F642EB06015EEA430E08BF20EA53
:1002F800D37070BDC4F10C04C4F1200500FA04F3F6
:1003080020FA05F001FA04F240EA020001F0004187
:1003180010EBD37041F100015EEA430E08BF20EAFA
:10032800D37070BDC4F1200500FA05F24EEA020E42
:1003380020FA04F301FA05F243EA020321FA04F071
:1003480001F0004121FA04F220EA020000EBD37028
:100358005EEA430E08BF20EAD37070BD94F0000F28
:100368000FD101F00046400041EB010111F4801F5C
:1003780008BF013CF7D041EA060195F0000F18BF0D
:10038800704703F00046520043EB030313F4801F49
:1003980008BF013DF7D043EA0603704794EA0C0F03
:1003A8000CEA135518BF95EA0C0F0CD050EA410619
:1003B80018BF52EA4306D1D181EA030101F0004196
:1003C8004FF0000070BD50EA410606BF10461946BE
:1003D80052EA430619D094EA0C0F02D150EA0136CA
:1003E80013D195EA0C0F05D152EA03361CBF10460B
:1003F80019460AD181EA030101F0004141F0FE41AA
:1004080041F470014FF0000070BD41F0FE4141F42D
:10041800780170BD81F0004102E000BF83F0004325
:1004280030B54FEA41044FEA430594EA050F08BF87
:1004380090EA020F1FBF54EA000C55EA020C7FEA4B
:10044800645C7FEA655C00F0E2804FEA5454D4EBC8
:100458005555B8BF6D420CDD2C4480EA020281EA92
:10046800030382EA000083EA010180EA020281EACA
:100478000303362D88BF30BD11F0004F4FEA01311C
:100488004FF4801C4CEA113102D0404261EB41012B
:1004980013F0004F4FEA03334CEA133302D05242B1
:1004A80063EB430394EA050F00F0A780A4F101046D
:1004B800D5F1200E0DDB02FA0EFC22FA05F28018A7
:1004C80041F1000103FA0EF2801843FA05F359418D
:1004D8000EE0A5F120050EF1200E012A03FA0EFC0C
:1004E80028BF4CF0020C43FA05F3C01851EBE37136
:1004F80001F0004507D54FF0000EDCF1000C7EEB53
:1005080000006EEB0101B1F5801F1BD3B1F5001F90
:100518000CD349085FEA30004FEA3C0C04F10104AF
:100528004FEA445212F5800F80F09A80BCF1004FD8
:1005380008BF5FEA500C50F1000041EB045141EA5A
:10054800050130BD5FEA4C0C404141EB0101013C23
:1005580028BFB1F5801FE9D291F0000F04BF014612
:100568000020B1FA81F308BF2033A3F10B03B3F1E4
:1005780020020CDA0C3208DD02F1140CC2F10C0274
:1005880001FA0CF021FA02F10CE002F11402D8BFD2
:10059800C2F1200C01FA02F120FA0CFCDCBF41EA9E
:1005A8000C019040E41AA2BF01EB0451294330BD6D
:1005B8006FEA04041F3C1CDA0C340EDC04F114044A
:1005C800C4F1200220FA04F001FA02F340EA030021
:1005D80021FA04F345EA030130BDC4F10C04C4F167
:1005E800200220FA02F001FA04F340EA0300294647
:1005F80030BD21FA04F0294630BD94F0000F83F491
:10060800801306BF81F480110134013D4EE77FEA73
:10061800645C18BF7FEA655C29D094EA050F08BFBF
:1006280090EA020F05D054EA000C04BF19461046A0
:1006380030BD91EA030F1EBF0021002030BD5FEAE4
:10064800545C05D14000494128BF41F0004130BD0C
:1006580014F580043CBF01F5801130BD01F0004560
:1006680045F0FE4141F470014FF0000030BD7FEAD3
:10067800645C1ABF194610467FEA655C1CBF0B46CE
:10068800024650EA013406BF52EA033591EA030FE5
:1006980041F4002130BD00BF90F0000F04BF0021DD
:1006A800704730B54FF4806404F132044FF0000510
:1006B8004FF0000150E700BF90F0000F04BF002189
:1006C800704730B54FF4806404F1320410F00045EF
:1006D80048BF40424FF000013EE700BF42004FEAEA
:1006E800E2014FEA31014FEA02701FBF12F07F4367
:1006F80093F07F4F81F06051704732F07F4208BF1E
:10070800704793F07F4F04BF41F40021704730B524
:100718004FF4607401F0004521F000411CE700BF70
:1007280050EA010208BF704730B54FF000050AE0F3
:1007380050EA010208BF704730B511F0004502D5F4
:10074800404261EB41014FF4806404F132045FEAF6
:10075800915C3FF4D8AE4FF003025FEADC0C18BF9F
:1007680003325FEADC0C18BF033202EBDC02C2F191
:10077800200300FA03FC20FA02F001FA03FE40EA23
:100788000E0021FA02F11444BDE600BF4A0011D25E
:1007980012F5001211D20DD56FF47873B3EB6252D3
:1007A8000ED44FEAC12343F0004343EA505323FADF
:1007B80002F070474FF00000704750EA013002D154
:1007C8004FF0FF3070474FF00000704770B5054696
:1007D8001F4C01224FF48041204600F02FFB0022DD
:1007E8004FF40041204600F029FB002415E00022C8
:1007F8004FF40051164800F021FB154E00224FF42B
:100808008041304600F01AFB6D0001224FF4804110
:10081800304600F013FB0134E4B20F2C09D815F46C
:10082800004FE4D001224FF40051094800F006FBC4
:10083800E3E7074C01224FF40051204600F0FEFA8E
:1008480001224FF40041204600F0F8FA70BD00BFC5
:100858000004004838B50546114C01224FF4004108
:10086800204600F0EBFA01224FF48041204600F0C8
:10087800E5FA01224FF48061204600F0DFFA0122F8
:100888004FF48061204600F0D9FA00224FF48061CD
:10089800204600F0D3FA2846FFF798FF38BD00BF7E
:1008A8000004004810B5074C00224FF48051204640
:1008B80000F0C4FA00224FF40061204600F0BEFAAE
:1008C80010BD00BF0004004838B505460846FFF7CC
:1008D800E3FE11A3D3E90023FFF772FCFFF756FFED
:1008E800840B6DB920F4004040F4804024F40044A7
:1008F80044F48044FFF76AFF2046FFF767FF38BDDE
:1009080020F4804040F4004024F4804444F400443F
:10091800F0E700BFAFF30080F8BA40D813A20C404C
:1009280030B58BB000240594069407940894099474
:100938001F4B5A6942F400225A615A6902F4002294
:100948000192019A5A6942F480025A615A6902F482
:1009580080020292029A5A6942F480225A615A69C4
:1009680002F480220392039A5A6942F400325A61CF
:100978005B6903F400330493049B0E4D22464FF445
:10098800F841284600F05AFA01224FF4004128465F
:1009980000F054FA4FF47C4305930123069307941F
:1009A800089405A9284600F061F90BB030BD00BFD6
:1009B800001002400004004872B6FEE700B591B08E
:1009C8002822002106A800F089FE00230193029343
:1009D800039304930593012306934FF4A0220792EF
:1009E8000A9302230D934FF480330E934FF4E013D0
:1009F8000F9306A800F028FA80B90F23019302216B
:100A08000291002303934FF480620492059301A896
:100A180000F06CFD20B911B05DF804FBFFF7CCFFC6
:100A2800FFF7CAFF08B500F08BF8FFF7C7FFFFF71D
:100A380077FF4FF47A7000F0A7F8FFF733FF42F220
:100A48000800FFF707FF42F210710020FFF73CFF94
:100A5800FEE7000082B00A4B9A6942F001029A61EF
:100A68009A6902F001020092009ADA6942F0805213
:100A7800DA61DB6903F080530193019B02B0704790
:100A880000100240FEE7FEE7FEE7FEE7FEE77047DC
:100A98007047704708B500F065F808BD704700005A
:100AA800DFF834D0FFF7FAFF0C480D490D4A002350
:100AB80002E0D458C4500433C4188C42F9D30A4A0B
:100AC8000A4C002301E013600432A242FBD300F079
:100AD800E1FDFFF7A7FFFEE700A0002000000020CF
:100AE8003C040020C01800083C04002060040020DA
:100AF800FEE7000010B504460E4B18784FF47A73E1
:100B0800B3FBF0F30C4A1068B0FBF3F000F09AF86E
:100B180068B90F2C01D901200AE0002221464FF0C4
:100B2800FF3000F057F8054B1C60002000E0012062
:100B380010BD00BF040000200000002008000020B5
:100B480008B5074A136843F010031360032000F048
:100B58002FF80F20FFF7CEFFFFF77CFF002008BD1E
:100B680000200240034A1168034B1B780B441360B2
:100B7800704700BF5804002004000020014B18688B
:100B8800704700BF5804002038B50446FFF7F6FF49
:100B98000546B4F1FF3F02D0044B1B781C44FFF715
:100BA800EDFF401BA042FAD338BD00BF040000206F
:100BB800074AD36823F4E0631B041B0C000200F40B
:100BC800E060034343F0BF6343F40033D3607047EE
:100BD80000ED00E000B5194BDB68C3F30223C3F155
:100BE800070CBCF1040F28BF4FF0040C03F1040EEE
:100BF800BEF1060F18D9033B4FF0FF3E0EFA0CFC6E
:100C080021EA0C0199400EFA03F322EA030319437F
:100C180000280BDB0901C9B200F1604000F5614012
:100C280080F800135DF804FB0023E5E700F00F00EF
:100C38000901C9B2024B1954F4E700BF00ED00E006
:100C480014ED00E00138B0F1807F0BD24FF0E023C3
:100C58005861054AF02182F8231000209861072284
:100C68001A6170470120704700ED00E070B582B04E
:100C7800002365E085685E000324B44025EA040586
:100C8800CC68B4402C438460446824EA0C0C4C685B
:100C9800C4F300149C4044EA0C04446061E0DD089D
:100CA800083550F8256003F007044FEA840C0F2438
:100CB80004FA0CF426EA040E0C6904FA0CF444EA6B
:100CC8000E0440F8254063E0042400E0002404FA00
:100CD8000EF42C430CF1020C544D45F82C40544CA6
:100CE800A568D44325EA0206D1F804C01CF4801F85
:100CF80001D042EA05064E4DAE60ED6804EA0506ED
:100D0800D1F804C01CF4001F01D042EA0506484D82
:100D1800EE606D6804EA0506D1F804C01CF4003FD3
:100D280001D042EA0506424D6E602D682C404E689F
:100D380016F4803F01D042EA05043D4A14600133AD
:100D48000A6832FA03F46ED04FF0010C0CFA03FC77
:100D58001CEA0202F3D04C6804F00304013C012CA5
:100D680088D94C6804F00304032C0CD0C4685D00D7
:100D78004FF0030C0CFA05FC24EA0C0C8C68AC4010
:100D880044EA0C04C4604C6804F00304022C86D0C6
:100D980004684FEA430E4FF0030C0CFA0EFC24EAE9
:100DA8000C0C4C6804F0030404FA0EF444EA0C0436
:100DB80004604C6814F4403FC1D01E4CA56945F04E
:100DC8000105A561A46904F001040194019C4FEA9E
:100DD800930C0CF10205154C54F8255003F003044C
:100DE8004FEA840E0F2404FA0EF425EA0405B0F144
:100DF800904F3FF46BAF104CA0420ED004F58064C6
:100E0800A0420CD004F58064A0420AD004F58064A6
:100E1800A0423FF459AF052459E7012457E70224BB
:100E280055E7032453E702B070BD00BF000001403E
:100E38000004014000100240000400480AB181612A
:100E48007047816270470000002800F0018370B588
:100E580082B00446036813F0010F3BD0B54B5B68C2
:100E680003F00C03042B1ED0B24B5B6803F00C0399
:100E7800082B13D06368B3F5803F68D0002B40F08F
:100E8800928003F1804303F504331A6822F4803218
:100E98001A601A6822F480221A605DE0A54B5B682C
:100EA80013F4803FE6D04FF4003393FAA3F3A14B39
:100EB80019684FF4003393FAA3F3B3FA83F303F0FA
:100EC8001F03012202FA03F30B4203D06368002BCD
:100ED80000F0C082236813F0020F00F0C580954B24
:100EE8005B6813F00C0F00F09C80924B5B6803F07A
:100EF8000C03082B00F08F802369002B00F0F28090
:100F0800012292FAA2F3B3FA83F303F1845303F5AF
:100F180084139B001A60FFF731FE0546022393FAFB
:100F2800A3F3844B1968022393FAA3F3B3FA83F368
:100F380003F01F03012202FA03F30B4240F0C380BF
:100F4800FFF71CFE401B0228E8D903208BE2794AF0
:100F5800136843F480331360764AD36A23F00F038F
:100F6800A1680B43D3626368002B36D0FFF706FEF7
:100F780005464FF4003393FAA3F36E4B19684FF408
:100F8800003393FAA3F3B3FA83F303F01F030122A8
:100F980002FA03F30B429DD1FFF7F0FD401B6428D2
:100FA800E7D903205FE2B3F5A02F09D0614B1A6897
:100FB80022F480321A601A6822F480221A60CBE781
:100FC80003F18043A3F53C331A6842F480221A6087
:100FD8001A6842F480321A60BEE7FFF7CFFD054673
:100FE8004FF4003393FAA3F3524B19684FF40033CC
:100FF80093FAA3F3B3FA83F303F01F03012202FA6F
:1010080003F30B423FF466AFFFF7B8FD401B6428BB
:10101800E6D9032027E2474B5B6813F4803F7FF44F
:101028006BAF022393FAA3F3424B1968022393FA96
:10103800A3F3B3FA83F303F01F03012202FA03F3C5
:101048000B4203D02369934240F006823948036873
:1010580023F0F8036169F82292FAA2F2B2FA82F256
:1010680001FA02F213430360236813F0080F00F03B
:101078008D80A369002B61D0012191FAA1F2B2FA07
:1010880082F22D4B13449B001960FFF777FD05464C
:10109800022393FAA3F293FAA3F293FAA3F2254A4E
:1010A800516A93FAA3F3B3FA83F303F01F030122FF
:1010B80002FA03F30B4269D1FFF760FD401B0228D7
:1010C800E6D90320CFE11B48036823F0F8036169E0
:1010D800F82292FAA2F2B2FA82F201FA02F2134369
:1010E8000360C1E7012393FAA3F3B3FA83F303F18F
:1010F800845303F584139B0000221A60FFF73EFD1A
:101108000546022393FAA3F30A4B1968022393FABC
:10111800A3F3B3FA83F303F01F03012202FA03F3E4
:101128000B42A1D0FFF72AFD401B0228E9D9032072
:1011380099E100BF0010024020819010012292FA2C
:10114800A2F2B2FA82F2B74B13449B0000221A6053
:10115800FFF714FD0546022393FAA3F293FAA3F2CC
:1011680093FAA3F2B04A516A93FAA3F3B3FA83F35A
:1011780003F01F03012202FA03F30B4206D0FFF724
:10118800FDFC401B0228E6D903206CE1236813F01C
:10119800040F00F0A980A44BDB6913F0805F20D115
:1011A800A14BDA6942F08052DA61DB6903F08053BF
:1011B8000193019B01259D4B1B6813F4807F12D07E
:1011C800E368012B23D073BB03F1804303F5043399
:1011D8001A6A22F001021A621A6A22F004021A62DA
:1011E8001AE00025E7E7914A136843F48073136017
:1011F800FFF7C4FC06468D4B1B6813F4807FDFD1D4
:10120800FFF7BCFC801B6428F5D903202BE1864A34
:10121800136A43F001031362E368002B3CD0FFF725
:10122800ADFC06462BE0052B09D07F4B1A6A22F04D
:1012380001021A621A6A22F004021A62ECE77A4B77
:101248001A6A42F004021A621A6A42F001021A6229
:10125800E2E7754B196A022393FAA3F3B3FA83F30F
:1012680003F01F03012202FA03F319423BD1FFF7EF
:1012780085FC801B41F28833984200F2EF800223FC
:1012880093FAA3F293FAA3F3002BE2D1022393FA81
:10129800A3F3654B596ADEE7FFF770FC064615E0D5
:1012A800614B196A022393FAA3F3B3FA83F303F0A9
:1012B8001F03012202FA03F3194214D0FFF75EFC60
:1012C800801B41F28833984200F2CA80022393FAC5
:1012D800A3F293FAA3F3002BE2D1022393FAA3F328
:1012E800514B596ADEE7B5BBE369002B00F0BA80C1
:1012F8004D4A526802F00C02082A00F09980022B2D
:101308002FD04FF0807393FAA3F3B3FA83F303F16A
:10131800845303F584139B0000221A60FFF72EFC08
:1013280004464FF0007393FAA3F33F4B19684FF04C
:10133800007393FAA3F3B3FA83F303F01F030122B4
:1013480002FA03F319426BD0FFF718FC001B0228BE
:10135800E7D9032087E0344AD36923F08053D36167
:10136800C2E74FF0807393FAA3F3B3FA83F303F160
:10137800845303F584139B0000221A60FFF7FEFBD9
:1013880005464FF0007393FAA3F3274B19684FF003
:10139800007393FAA3F3B3FA83F303F01F03012254
:1013A80002FA03F3194206D0FFF7E8FB401B0228B4
:1013B800E7D9032057E01C494B6823F47413626A89
:1013C800206A024313434B604FF0807393FAA3F3F0
:1013D800B3FA83F303F1845303F584139B000122CA
:1013E8001A60FFF7CBFB04464FF0007393FAA3F3A0
:1013F8000D4B19684FF0007393FAA3F3B3FA83F314
:1014080003F01F03012202FA03F3194206D1FFF782
:10141800B5FB001B0228E7D9032024E0002022E0C6
:10142800002020E020819010001002400070004051
:10143800012B1AD0104B5B6803F48031226A914269
:1014480015D103F47013626A934212D100200AE0A6
:1014580001207047012006E0012004E0032002E09B
:10146800032000E0002002B070BD0120FBE701204E
:10147800F9E70120F7E700BF00100240164B5B6850
:1014880003F00C02082A01D01448704703F47011C5
:101498004FF4701292FAA2F2B2FA82F221FA02F230
:1014A8000F49885C0C4AD26A02F00F020F2191FAA8
:1014B800A1F1B1FA81F1CA400A498A5C13F4803F6C
:1014C80005D0064BB3FBF2F303FB00F07047064B65
:1014D80003FB00F0704700BF0010024000127A00C2
:1014E80090180008A018000800093D00002800F026
:1014F800BE8070B50D460446614B1B6803F00703B8
:101508008B420BD25E4A136823F007030B43136028
:10151800136803F007038B4240F0AB80236813F095
:10152800020F06D0574A536823F0F003A1680B4313
:101538005360236813F0010F5AD06368012B2DD034
:10154800022B40D0022292FAA2F24E4A10680222DE
:1015580092FAA2F2B2FA82F202F01F02012101FA13
:1015680002F2104200F0878046494A6822F00302DE
:1015780013434B60FFF702FB0646424B5B6803F0E0
:101588000C036268B3EB820F32D0FFF7F7FA801BC7
:1015980041F288339842F0D9032067E04FF40032D3
:1015A80092FAA2F2374A10684FF4003292FAA2F285
:1015B800B2FA82F202F01F02012101FA02F202429B
:1015C800D2D1012052E04FF0007292FAA2F22D4AD5
:1015D80010684FF0007292FAA2F2B2FA82F202F0A8
:1015E8001F02012101FA02F21042BDD101203DE0A3
:1015F800234B1B6803F00703AB420AD9204A136840
:1016080023F007032B431360136803F00703AB426F
:1016180033D1236813F0040F06D01A4A536823F411
:10162800E063E1680B435360236813F0080F07D0A9
:10163800144A536823F46053216943EAC103536091
:10164800FFF71CFF0F4B5B6803F0F003F02292FAE0
:10165800A2F2B2FA82F2D3400B4AD35CD8400B4BC9
:1016680018600B4B1868FFF745FA002070BD012081
:1016780070470120FAE70120F8E70120F6E700BFEC
:1016880000200240001002408018000800000020DE
:101698000800002070B50D4E0D4D761BB61006D013
:1016A800002455F8043B01349847A642F9D1094E65
:1016B800094D761B00F0D4F8B61006D0002455F872
:1016C800043B01349847A642F9D170BDB41800080C
:1016D800B4180008BC180008B4180008830730B50F
:1016E80048D0541E002A3FD0CAB2034601E0013C4C
:1016F8003AD303F8012B9D07F9D1032C2DD9CDB28C
:1017080045EA05250F2C45EA054536D9A4F110020E
:1017180022F00F0C03F1200EE6444FEA121C03F1ED
:10172800100242E9045542E9025510327245F8D1D7
:101738000CF1010214F00C0F03EB021204F00F0C71
:1017480013D0ACF1040323F003030433134442F829
:10175800045B9342FBD10CF003042CB1CAB21C44C5
:1017680003F8012B9C42FBD130BD64461346002C84
:10177800F4D1F9E703461446BFE71A46A446E0E762
:10178800024B13B1024800F005B870470000000092
:10179800A9170008002301461A46184600F01AB88F
:1017A80038B5084B084D5B1B9C1007D0043B1D4403
:1017B800013C55F804399847002CF9D1BDE8384068
:1017C80000F054B8C0180008BC180008704700BFE3
:1017D800704700BF2DE9F047DFF87CA00646DAF82D
:1017E800000098460F469146FFF7F0FF1B4B1B6819
:1017F800D3F8484124B365681F2D26DC5EB96B1CFD
:101808000235DAF80000636044F82570FFF7E0FF5E
:101818000020BDE8F08704EB85010123C1F888901A
:10182800D4F88821AB401A43022EC4F88821C1F8A5
:101838000881E4D1D4F88C211343C4F88C31DEE755
:1018480003F5A674C3F84841D5E7DAF80000FFF7B6
:10185800BFFF4FF0FF30DCE738040020B018000865
:10186800F8B500BFF8BC08BC9E467047F8B500BF85
:08187800F8BC08BC9E46704755
:101880000000000000000000010203040607080930
:1018900002030405060708090A0B0C0D0E0F1010B1
:1018A0000102030405060708090A0B0C0D0E0F10B0
:0418B0001000002004
:0818B40089170008AD010008CE
:0418BC008901000896
:1018C00000127A000100000010000000000000007B
:1018D00000000000FC02002064030020CC03002074
:1018E00000000000000000000000000000000000F8
:1018F00000000000000000000000000000000000E8
:1019000000000000000000000000000000000000D7
:1019100000000000000000000000000000000000C7
:1019200000000000000000000000000000000000B7
:1019300000000000000000000000000000000000A7
:101940000000000000000000000000000000000097
:101950000000000000000000000000000000000087
:101960000000000000000000000000000000000077
:101970000000000000000000010000000000000066
:101980000E33CDAB34126DE6ECDE05000B0000002B
:101990000000000000000000000000000000000047
:1019A0000000000000000000000000000000000037
:1019B0000000000000000000000000000000000027
:1019C0000000000000000000000000000000000017
:0C1CF00000000000000000005C04002068
:0400000508000AA93C
:00000001FF
